:100000000EC01DC01CC01BC01AC019C018C017C02C
:1000100016C015C014C013C012C011C010C01124E6
:100020001FBECFE5D2E0DEBFCDBF20E0A0E6B0E04E
:1000300001C01D92A83DB207E1F72ED189C1E0CFE2
:1000400086B38A7390E0089528E030E094E045E0BC
:1000500018BA87FF02C048BB01C098BB880F215067
:100060003109B1F70895CF93DF93DC01EB019B01D8
:1000700035952795CD0166E070E059D1805A9F4FA4
:10008000FC01E20FF31F9081C0FF04C04295407F46
:100090009F7001C0907F492BCD0166E070E047D191
:1000A000805A9F4FFC01E20FF31F4083DF91CF91F5
:1000B0000895AB019B013595279566E070E037D137
:1000C000805A9F4FFC01E20FF31F808140FD829513
:1000D0008F700895982F9295907F892BE0E6F0E03D
:1000E000808381838283838384838583369690E0B3
:1000F000E83DF907A9F708957F928F929F92AF92FA
:10010000BF92CF92DF92EF92FF920F931F93CF9304
:10011000DF936C017B014A015901C0E0D0E000E0AF
:1001200010E00C151D052CF5B701C801C2DF782EB3
:10013000B701C8010196BDDFE72DF0E0EE0FFF1F0C
:10014000EE0FFF1FE80DF91DEC0FFD1F908192953A
:10015000907FE82FF0E0EE0FFF1FEE0FFF1FE80D7E
:10016000F91DEC0FFD1F8081892B6EDF0E5F1F4F85
:10017000D8CF8601043111052CF5B701C80199DFEC
:10018000782EB701C801019694DFE72DF0E0EE0F5D
:10019000FF1FEE0FFF1FEA0DFB1DEC0FFD1F9081EF
:1001A0009295907FE82FF0E0EE0FFF1FEE0FFF1FFC
:1001B000EA0DFB1DEC0FFD1F8081892B45DF0E5FD3
:1001C0001F4FD8CF2196C430D10509F0A8CFDF91B9
:1001D000CF911F910F91FF90EF90DF90CF90BF9044
:1001E000AF909F908F907F9008959F92AF92BF9213
:1001F000CF92DF92EF92FF920F931F93CF93DF93F3
:10020000EC016B017A01CC15DD05A4F5A12CB12C14
:1002100000E010E0BE01C8014CDF982EBE01C8010D
:10022000019647DFE92DF0E0EE0FFF1FEE0FFF1FF5
:10023000EE0DFF1DEA0DFB1D90819295907FE82F3A
:10024000F0E0EE0FFF1FEE0FFF1FEE0DFF1DEA0D9A
:10025000FB1D8081892BF8DE0E5F1F4F04311105D5
:10026000C9F68FEFA81AB80A84E0A816B10481F67F
:100270002196C9CFDF91CF911F910F91FF90EF9001
:10028000DF90CF90BF90AF909F900895AC016CE04D
:1002900070E080E090E0A9CFCF92DF92EF92FF92E2
:1002A0000F931F93CF93DF938FE087BB18BA07E0BC
:1002B00010E0CC24C394D12CE12C82E0F82EC0E0D5
:1002C000D0E020E030E080E090E0209749F4A60103
:1002D000022E02C0440F551F0A94E2F7842B952B7F
:1002E000C00FD11FC830D1050CF028972F5F3F4FAA
:1002F0002830310551F7A8DE21E0E21AF10809F7AC
:100300008FEF90E722E0815090402040E1F700C05D
:1003100000000150110980F680E090E0DF91CF915C
:100320001F910F91FF90EF90DF90CF9008950024E0
:10033000552704C0080E591F880F991F009729F0F0
:1003400076956795B8F37105B9F7802D952F0895C7
:04035000F894FFCF4F
:00000001FF
