:100000000EC028C027C026C025C024C023C022C0DF
:1000100021C020C01FC01EC01DC01CC01BC0112499
:100020001FBECFE5D2E0DEBFCDBF11E0A0E6B0E05D
:10003000E8EEFAE002C005900D92A436B107D9F7B8
:1000400021E0A4E6B1E001C01D92AA3EB207E1F7AB
:100050000AD548C5D5CF86B38A7390E0089528E0C5
:1000600030E094E045E018BA87FF06C048BB880F2F
:1000700021503109C1F7089598BBF9CF0F931F9311
:10008000CF93DF93E82F392F8B01EB01D595C795DF
:100090008E2F66E070E0EED4DC01AE58BE4FAC0FA0
:1000A000BD1F2C9100FF14C04295407F2F70422B42
:1000B0008E2F932F66E070E0DDD4FC01EE58FE4FEA
:1000C000EC0FFD1F4083DF91CF911F910F91089599
:1000D000207FEDCF9B01DB01B595A79566E070E031
:1000E000C9D4FC01EE58FE4FEA0FFB1F808120FDB2
:1000F00082958F700895982F9295907F892BE2E7D3
:10010000F1E02AEE31E080838183828383838483DC
:10011000858336962E173F07B1F708957F928F9209
:100120009F92AF92BF92CF92DF92EF92FF920F9386
:100130001F93CF93DF937C01962E872E5A0169017E
:10014000D0E0C0E010E000E026C0692D782DC801A5
:10015000C1DF782E692D782DC8010196BBDFE72D10
:10016000F0E0EE0FFF1FEE0FFF1FEA0DFB1DEC0F7F
:10017000FD1F90819295907FE82FF0E0EE0FFF1F1A
:10018000EE0FFF1FEA0DFB1DEC0FFD1F8081892B79
:1001900066DF0E5F1F4F0E151F05BCF2870104318D
:1001A000110594F02196C430D10561F6DF91CF910D
:1001B0001F910F91FF90EF90DF90CF90BF90AF9085
:1001C0009F908F907F900895692D782DC80182DFD0
:1001D000782E692D782DC80101967CDFE72DF0E09F
:1001E000EE0FFF1FEE0FFF1FEC0DFD1DEC0FFD1FAF
:1001F00090819295907FE82FF0E0EE0FFF1FEE0FB9
:10020000FF1FEC0DFD1DEC0FFD1F8081892B27DFEB
:100210000E5F1F4FC4CF9F92AF92BF92CF92DF92DB
:10022000EF92FF920F931F93CF93DF93EC016B013B
:100230007A01CC15DD0564F0DF91CF911F910F910C
:10024000FF90EF90DF90CF90BF90AF909F90089578
:10025000B12CA12C10E000E0BE01C8013BDF982EBC
:10026000BE01C801019636DFE92DF0E0EE0FFF1F59
:10027000EE0FFF1FEE0DFF1DEA0DFB1D9081929505
:10028000907FE82FF0E0EE0FFF1FEE0FFF1FEE0D47
:10029000FF1DEA0DFB1D8081892BE1DE0E5F1F4FE4
:1002A00004311105C9F68FEFA81AB80A84E0A81620
:1002B000B10481F62196BDCFAC016CE070E090E016
:1002C00080E0A9CFDB01AA0FBB1FAA0FBB1FAC5850
:1002D000BF4FFC0104962D912193E817F907D9F738
:1002E0000895AF92BF92CF92DF92EF92FF920F9359
:1002F0001F93CF93DF93CDB7DEB760970FB6F89417
:10030000DEBF0FBECDBF9C0144E0FC01CE010196D3
:10031000DC0101900D924A95E1F744E0F901119258
:100320004A95E9F7F90150E040E05C0108E010E08F
:10033000EE24E394F12CB801042E02C07595679564
:100340000A94E2F7D50130E020E08D9190E0862319
:100350009723892B49F080816701022E01C0CC0CC4
:100360000A94EAF78C2980832F5F3F4F24303105B0
:1003700061F74F5F5F4F319644305105E1F660966B
:100380000FB6F894DEBF0FBECDBFDF91CF911F91A6
:100390000F91FF90EF90DF90CF90BF90AF900895B6
:1003A0004F925F926F927F928F929F92AF92BF9285
:1003B000CF92DF92EF92FF920F931F93CF93DF9331
:1003C000EA012B0121E0421A51087C015A0184E024
:1003D000A80EB11CD12CC12CF70161907F01712CAA
:1003E000420110E000E09301002E02C035952795F0
:1003F0000A94E2F7C9018170992720FF29C0C13012
:10040000D105A1F0CB30D105A4F0DF91CF911F91A0
:100410000F91FF90EF90DF90CF90BF90AF909F90A3
:100420008F907F906F905F904F900895CC24C394ED
:10043000D12CC40101970A97D8F4CB30D10540F4F0
:10044000BE01C40147DE882319F0C6010196DDCF45
:10045000EFEF8E1A9E0A0F5F1F4F0430110519F639
:100460002196AC16BD0609F0B7CF90E080E0CDCF65
:1004700083E090E0CACF0F931F93CF93DF93182FA1
:10048000092FC1E0D0E0612F702FCE0123DE882339
:1004900051F02196CB30D105B1F781E0DF91CF91BA
:1004A0001F910F91089580E0F9CFEF92FF920F9383
:1004B0001F93CF93DF937C01C1E0D0E0870101500F
:1004C000110917FF10C040E070E060E0CE01D6DDFA
:1004D0002196CB30D10591F7DF91CF911F910F91EC
:1004E000FF90EF900895B801CE01F4DD482FB801D8
:1004F0006F5F7F4FCE01C2DDE2CF83309105D9F02F
:1005000034F48130910531F0029771F00895049729
:10051000C9F0089580916401909165010A969093C5
:100520006501809364010895809164019091650153
:100530008C599F4FF4CF8091640190916501845D47
:100540009E4FEDCF809164019091650180559B4F46
:10055000E6CF0F931F93CF93DF93CAE0D0E010E074
:1005600000E0CE0188DF882329F0CE019EDF2196AE
:100570000F5F1F4F2197A8F7C801BFDF8091660169
:1005800090916701080F191F10936701009366018E
:10059000DF91CF911F910F9108957F928F929F923B
:1005A000AF92BF92CF92DF92EF92FF920F931F9381
:1005B000CF93DF934A01722EEB012197F12CE12CAE
:1005C0006C0121E0C21AD108D7FD1BC010E000E089
:1005D0005401AE0CBF1CC601800F911FF501608154
:1005E00070E0002E02C0759567950A94E2F760FFEF
:1005F00003C0472DBE0142DD0F5F1F4F04301105C0
:1006000051F72196FFEFEF1AFF0A24E0E216F104FA
:10061000D9F6DF91CF911F910F91FF90EF90DF906E
:10062000CF90BF90AF909F908F907F900895CF9381
:10063000DF9380E060DDC1E0D0E045E06BE070E09A
:10064000CE011CDD2196CB30D105B9F7D0E0C0E05A
:1006500046E0BE0190E080E011DD46E0BE018BE0A7
:1006600090E00CDD2196CB30D10591F78091770198
:100670008F708067809377018091B9018F70806857
:100680008093B901DF91CF910895FF920F931F934B
:10069000CF93DF93F82E01E010E0D0E0C0E04F2DC3
:1006A000BE01C801EBDC2196CB30D105C1F70F5F4D
:1006B0001F4F0B30110589F7DF91CF911F910F91DB
:1006C000FF900895EF92FF920F931F93CF93DF93C4
:1006D000EC01F62EE72E8A01F80141918F014111BC
:1006E00007C0DF91CF911F910F91FF90EF90089578
:1006F0006F2D7E2DCE01C2DC2196EECF8F929F9280
:10070000AF92BF92CF92DF92EF92FF920F931F931F
:10071000CF93DF93EC014B01152F6C0184E0C80EE1
:10072000D11C88EEE82E83E0F82E9AE0A92EB12C99
:10073000842F912FB701AFD18C0141E0460FB40156
:10074000CE019CDC402FC701B501A5D17B012196CC
:10075000CC16DD0669F7DF91CF911F910F91FF90C5
:10076000EF90DF90CF90BF90AF909F908F900895C3
:1007700024EB30E044E351E070E060E08CE090E096
:10078000CDDC2CE830E044E351E061E070E08CE047
:1007900090E0C4DC28E031E044E351E062E070E046
:1007A0008CE090E0BBDC2CED30E044E351E063E012
:1007B00070E08CE090E0B2DC24EB30E044E351E008
:1007C00064E070E08CE090E0A9DC2CE830E044E3E9
:1007D00051E065E070E08CE090E0A0DC28E031E0E2
:1007E00044E351E066E070E08CE090E097DC2CEDB3
:1007F00030E044E351E067E070E08CE090E08EDCB4
:1008000044E351E06CE070E088E090E004CD85E0E6
:1008100087BB18BA0895EF92FF921F93CF93DF938F
:10082000182F81FF03C08CE691E05BDDE090620051
:10083000F090630013FD34C0C0916000D09161005E
:1008400014FD3AC015FF12C0E0906200F090630002
:100850008FEFE81AF80AAE01B7018CE691E0A0DD4F
:10086000892B21F4F0926300E092620060916200B3
:1008700070916300AE018CE691E092DD009729F45F
:100880002196D0936100C0936000DF91CF911F91BA
:10089000FF90EF9008952196D0936100C09360007F
:1008A000C0916000D0916100AE01B7018CE691E08B
:1008B00077DD019781F7C0CF81E0E81AF108AE013A
:1008C000B7018CE691E06CDD892B09F0BBCFF0928B
:1008D0006300E0926200B6CF3CDE609170017091DF
:1008E00071018CE691E0EEDC8091700190917101D4
:1008F000019666E070E0CFD0909371018093700113
:1009000020E048E651E069E070E08FE090E045DEED
:10091000609170017091710188E691E0D3DC809163
:10092000640090916500019623E030E0B901B3D0F6
:1009300090936500809364000196B901ACD021E0EA
:10094000280F48E651E069E070E08FE090E025DE96
:1009500046E650E070E060E08CE090E0B3DE46E612
:1009600050E061E070E08CE090E0ACDE409164012A
:100970005091650162E070E080E190E0BFDE40915F
:1009800064015091650163E070E080E190E0B6DEC3
:100990004DE650E064E070E08CE090E093DE4DE6E0
:1009A00050E065E070E08CE090E08CDE4091660104
:1009B0005091670166E070E080E190E09FDE409139
:1009C00066015091670167E070E080E190E096DE9B
:1009D00085E090E090936300809362008EEF9FEF3C
:1009E0009093610080936000089521DE90E080E0A4
:1009F0004CDE109267011092660110926501109210
:100A000064016ACFCF93DF93D82FC92F6091600024
:100A10007091610020E04CE651E08091620090917D
:100A20006300BBDD8D2F9C2FF6DEEC01209164006E
:100A30002F5F60916000709161004CE651E0809101
:100A4000620090916300A9DD93DEC130D10529F0E9
:100A5000229731F4DF91CF91C8CFDF91CF913CCF76
:100A6000DF91CF910895D3DEC0DF86B38A7390E023
:100A7000C9DFFBCF0024552704C0080E591F880F7B
:100A8000991F009729F076956795B8F37105B9F726
:100A9000802D952F089597FB072E16F4009406D00D
:100AA00077FD08D00BD007FC05D03EF490958195DA
:100AB0009F4F0895709561957F4F0895AA1BBB1BAA
:100AC00051E107C0AA1FBB1FA617B70710F0A61B4E
:100AD000B70B881F991F5A95A9F780959095BC016F
:080AE000CD010895F894FFCF49
:100AE800FEFF0300010008010607020900040305D0
:100AF80002080900000F0000000E020000020E00AC
:100B08000006060000060C00000C060000000000AD
:100B1800080E0000080E0000040E0000080E000079
:100B28000A0A00000A0E000008080000020E000071
:100B38000800000000000000000E0808000E080E63
:100B4800000E040400080808000E0A0A000E0A0A2B
:100B5800000E0808000E080E000008000000000043
:100B68000A040000040E0000080E0000020C000039
:100B78000E020000020E00000A0E0000040400002D
:100B88000A0E0000020E00000000000000040A0A1D
:100B980000040C04000C0204000C02060008080AF9
:100BA800000E080E000E080E000E0204000E0A0EBB
:100BB800000E0A0E000000000F0F0F0F0F09090F9B
:100BC8000F08090A0A050A05000F0F00060606069F
:100BD80006070700060E0E000500040003000200C9
:040BE8000100000008
:00000001FF
